:020000040000FA
:100000002000146800000165000001750000017700
:1000100000000000000000000000000000000000E0
:100020000000000000000000000000000000017956
:1000300000000000000000000000017B000001192A
:100040000000017F000001810000018300000185A4
:100050000000018700000189000000000000018B02
:100060000000018D0000018F00000191000001934C
:100070000000019500000197000001990000019B1C
:1000800000F002F800F031F80CA030C8083824184D
:100090002D18A246671EAB4654465D46AC4201D1C0
:1000A00000F023F87E460F3E0FCCB64601263342C1
:1000B00000D0FB1AA246AB46334318470000016844
:1000C00000000178103A02D378C878C1FAD85207F4
:1000D00001D330C830C101D504680C6070471FB52A
:1000E000C046C0461FBD10B510BD00F06AF81146ED
:1000F000FFF7F5FF00F01AF800F082F803B4FFF7FD
:10010000F2FF03BC00F086F81349086000BF1249F3
:1001100009680029FBD170470F480068002804D007
:100120000D480068401E0C4908607047412080015E
:100130000A498860084600680121490208430749C6
:1001400008600B20064908608220886003E07D205B
:10015000C000FFF7D9FFFAE720000000500072004E
:1001600040000800EFF314800F49084080F3148822
:100170000E480047FEE7FEE7FEE7FEE7FEE7FEE784
:10018000FEE7FEE7FEE7FEE7FEE7FEE7FEE7FEE747
:10019000FEE7FEE7FEE7FEE7FEE7FEE70448054967
:1001A000034A054B70470000FFFFFFFE000000817F
:1001B0002000006820001468200000687047704725
:1001C0007047754600F022F8AE4605006946534672
:1001D000C008C000854618B020B5FFF7DFFF60BC3F
:1001E00000274908B6460026C0C5C0C5C0C5C0C561
:1001F000C0C5C0C5C0C5C0C5403D49008D4670479B
:100200000446C046C0462046FFF778FF00487047C6
:100210002000000401491820ABBEFEE700020026C2
:1002200070470000000002342000000000000004BD
:08023000000000C40000000002
:040000050000008176
:00000001FF
