:020000040800F2
:100000000014002049010008350B0008330B0008DC
:1000100000000000000000000000000000000000E0
:10002000000000000000000000000000370B000886
:10003000000000000000000007010008510B00084C
:100040005B0100085B0100085B0100085B01000820
:100050005B0100085B0100085B0100085B01000810
:100060005B0100085B0100085B0100085B01000800
:100070005B0100085B0100085B0100085B010008F0
:10008000D10B00085B010008000000005B010008C4
:100090005B0100085B0100085B0100085B010008D0
:1000A0005B0100085B0100085B0100085B010008C0
:1000B0005B010008000000005B0100080348854662
:1000C00000F0DCF800480047090D0008001400208B
:1000D000084B19680868203080F30988022080F3F3
:1000E0001488BFF36F8F3FBCAE4608BC04BC62B639
:1000F000184700001C000020EFF3108072B6704714
:1001000080F310887047EFF309800E4B1A6820388F
:100110001060F0C044464D4656465F46F0C008B5F4
:1001200072B601F015F962B60CBC1168086810309F
:10013000F0C8A046A946B246BB4680F309882038DD
:10014000F0C818471C0000200448804704480047B6
:10015000FEE7FEE7FEE7FEE7FEE7FEE7CD0B000861
:10016000BD00000830B50B460146002020220124C6
:1001700009E00D46D5409D4205D31D469540491BDB
:100180002546954040191546521E002DF1DC30BD24
:10019000F0B51FB40646002082B005464024019108
:1001A00000901BE0019922460F46304600F020F8EF
:1001B000049A059B801A994110D31046194622468D
:1001C00000F04BF8361A8F4101972246012000219A
:1001D000009F00F042F838184D4100902046641E00
:1001E0000028DFDC019B00982946324607B0F0BDAD
:1001F00010B5202A04DB0846203AD040002110BD6B
:100200000B46D340D0402024A21A914008431946FF
:1002100010BD03460B439B0703D009E008C9121F1A
:1002200008C0042AFAD203E00B78491C0370401C72
:10023000521EF9D27047D2B201E00270401C491E32
:10024000FBD270470022F6E710B513460A46044673
:100250001946FFF7F0FF204610BD10B5202A04DB39
:100260000146203A9140002010BD914020239C1A65
:100270000346E3401943904010BD0000064C0125A1
:10028000064E05E02046E36807C82B439847103424
:10029000B442F7D3FFF716FF84160008A41600082F
:1002A00001488068704700000C0000200248816807
:1002B00002788918816070470C00002010B506484C
:1002C0000168102211430160002000F007F800F0DF
:1002D00041F8002010BD00000020024000B501469A
:1002E00087B00022102000F059F8102000F04AF8E2
:1002F0001348C26902210A43C261C06908400590DF
:1003000004A9684600F0D2F800F0ECF80D49FFF7B8
:1003100029FF0E490C4A0A600D4A401ECA60486017
:10032000002008618860084600F0F2FA002802D038
:10033000012007B000BD054800F010FBF9E7000000
:100340000010024040420F0000040040C80200209C
:10035000E703000008B50A48816901221143816161
:10036000816911400091C26901040A43C261C069F8
:100370000022084003210090481F00F00FF808BD3C
:1003800000100240002805DBC106C90E012088408C
:10039000014908607047000000E100E010B500F07E
:1003A00081FC10BDF8B50F46060059D03A4D2868BB
:1003B000C007C00FB84209D228684008400038433F
:1003C00028602868C007C00FB84249D13068334C54
:1003D00081070CD5400704D560680721090208434E
:1003E00060606068F0218843B168084360603078DD
:1003F000C00726D0706801280ED0216802280ED0D0
:10040000890700292CDA6168890889000143616045
:10041000FFF746FF00900DE021688903F1E78901AD
:10042000EFE7FFF73DFF0099411A1D48814201D9CE
:100430000320F8BD60680C2108407168890088427B
:10044000EFD12868C007C00FB8420BD92868400810
:100450004000384328602868C007C00FB84201D068
:100460000120F8BD3078400706D5606807210902F1
:100470008843F1680843606000F044F86168094A05
:100480000906090F515CC840074908600020FFF7C2
:1004900025FF0020F8BD00000020024000100240AF
:1004A000881300004C1600081800002010B5072221
:1004B00002600A4A53689B079B0F43605368F0240D
:1004C00023408360526807231B021A40C26004481D
:1004D0000068C007C00F086010BD00000010024097
:1004E000002002400448054900684968044A49055B
:1004F000490F515CC84070471800002000100240AE
:100500005C16000810B515A30FCB88B06C460FC45D
:1005100016A30FCB04AC0FC4184A51680C200B462D
:1005200003401748042B16D0082B14D18B021B0F45
:100530006C46E45CD26A04AB1207120F9A5CC903E2
:1005400005D500231946FFF723FE214601E020468A
:100550000C4900F08FFB08B010BD00000203040539
:10056000060708090A0B0C0D0E0F101001020304F8
:1005700005060708090A0B0C0D0E0F1000100240AB
:1005800000127A0000093D00FEB5040070D020780A
:10059000DB4DC0074AD068680007800F012807D0EC
:1005A00068680007800F022809D16868C00306D573
:1005B000286880033AD560680028E7D036E0616893
:1005C000012914D001208004002901D0052914D06C
:1005D0002A68012109048A432A6029688143296025
:1005E0006068002816D0FFF75BFE06460EE028681C
:1005F0000121090408432860F2E7296801432960C2
:10060000F5E7FFF74DFE801B64286ED8286880034D
:10061000F7D50BE0FFF744FE064604E0FFF740FE87
:10062000801B6428F1D828688003F7D4207801263D
:10063000800700283CDA68680007800F07D06868E8
:100640000007800F022809D16868C00306D4286813
:10065000800716D5E06801280AD112E0E06800287A
:10066000286816D030432860FFF71AFE074605E0D9
:1006700042E1FFF715FEC01B0228C6D82868800794
:10068000F7D52868F82188432169C9000843286004
:100690000EE0400840002860FFF702FE074604E035
:1006A000FFF7FEFDC01B0228AFD828688007F7D4EB
:1006B0002078000722D5E0690028686A0ED0304310
:1006C0006862FFF7EDFD074604E0FFF7E9FDC01B98
:1006D00002289AD8686A8007F7D50FE040084000E2
:1006E0006862FFF7DDFD074605E09CE0FFF7D8FDF7
:1006F000C01B022889D8686A8007F7D420780427AD
:10070000400700285FDA00200190E869C00008D4A3
:10071000E969B8060143E961E969014001200091F6
:10072000019078480168C90511D401688215114308
:100730000160FFF7B5FD009005E0FFF7B1FD0099FE
:10074000401A64286FD86F480068C005F5D5A068C6
:1007500001280AD0002801D0052810D0286A4008B6
:1007600040002862286AB84301E0286A30432862C2
:10077000A068002812D0FFF793FD00900AE0286AD5
:1007800038432862F1E7FFF78BFD0099411A5E4874
:10079000814248D8286A8007F5D50DE0FFF780FD33
:1007A000009006E0FFF77CFD0099411A564881420F
:1007B00039D8286A8007F5D40198012803D1E9695E
:1007C00000078143E9612078C00635D560690128BA
:1007D0000CD0401D686B23D038436863686B4008B9
:1007E00040006863FFF75CFD064622E0686B384313
:1007F0006863686B30436863FFF752FD064604E0A8
:10080000FFF74EFD801B02285BD8686B8007F7D589
:10081000686BF8218843A169C900084368630BE04D
:10082000B8436863F4E74CE0FFF73AFD801B022809
:1008300047D8686B8007F7D4206A00285ED06968C3
:100840000907890F022942D00126360602282868A6
:1008500005D0B0432860FFF723FD044633E0B043E2
:100860002860FFF71DFD074604E0FFF719FDC01BD8
:10087000022826D828688001F7D4E86AE16A0009CE
:1008800000010843E862616AA06A084369683D2282
:100890001204914308436860286830432860FFF7DA
:1008A000FFFC044604E0FFF7FBFC001B022808D80D
:1008B00028688001F7D521E0FFF7F2FC001B022831
:1008C00001D90320FEBD28688001F5D416E0012877
:1008D000F8D06868E96A01221204636A02409A4209
:1008E0000AD10907E26A090F914205D10F21890453
:1008F0000840A16A884201D00120FEBD0020FEBD53
:1009000000100240007000408813000070477047DC
:1009100070B5040005D025462035687F002802D038
:1009200006E0012070BD00202877204600F014F872
:1009300002206877211D206800F052F90120403420
:10094000A071A877E87720706070A070E0702071C7
:1009500060716877002070BD70470000014620314B
:100960004A7F012A01D00120704702224A7702689B
:10097000D36801210B43D36000680B4A904208D032
:100980008A07904205D0094A904202D0084A904214
:1009900004D182685207520F062A02D002680A4325
:1009A0000260002070470000002C0140000400405D
:1009B00000400140704770B5044600680169002599
:1009C000C9438907002915DBC168C943890711D4C8
:1009D000E91E016101202077206880698007204698
:1009E00002D0FFF7E7FF04E000F096F8204600F0A1
:1009F00094F8257720680169C943490717D4C1686D
:100A0000C943490713D40421C94301610220207757
:100A1000206880698005800F204602D0FFF7CAFF5A
:100A200004E000F079F8204600F077F82577206898
:100A30000169C943090716D4C168C943090712D41B
:100A40000821C9430161042020772068C06980071C
:100A5000204602D0FFF7AEFF04E000F05DF820462C
:100A600000F05BF8257720680169C943C90617D4EF
:100A7000C168C943C90613D41021C94301610820C4
:100A800020772068C0698005800F204602D0FFF7DC
:100A900091FF04E000F040F8204600F03EF8257792
:100AA00020680169C943C90708D1C168C943C9079A
:100AB00004D1891E0161204600F030F820680169E8
:100AC000C943090609D4C168C943090605D4802170
:100AD000C94301612046FFF719FF20680169C94336
:100AE000490609D4C168C943490605D44021C94310
:100AF0000161204600F01CF820680169C94389069D
:100B000009D4C168C943890605D42021C9430161BC
:100B10002046FFF7FCFE70BD7047704710B50068B7
:100B20000249884201D1FFF7C1FB10BD000400401B
:100B30007047FEE7FEE77047012000F023F9FBE76E
:100B4000012000F01FF9FBE7012000F01BF9FBE793
:100B500010B5FFF7D1FA044600F09AFC002803D044
:100B600001200349000748602046FFF7C9FA10BD7D
:100B700000ED00E030B591B030216846FFF762FB30
:100B800000240D94012003900E9402251020099456
:100B9000009504900F94C0030A900C9408950B9450
:100BA0006846FFF7F1FC002801D072B6FEE7072087
:100BB0000C900E9400210D950F940CA8FFF7F2FBFA
:100BC000002801D072B6FEE711B030BD70470000BA
:100BD00010B50248FFF7EFFE10BD0000C80200206C
:100BE000F0B502681D4B0124A4071D4D984203D0A7
:100BF000A04201D0A84203D17026B2434E683243CE
:100C0000184E194F98420DD0A0420BD0A84209D0DF
:100C1000164CA04206D0B04204D0B84202D0144CC8
:100C2000A04204D103242402A243CC68224380249E
:100C3000A2434C69224302608A68C2620A688262E7
:100C4000984206D0B04204D0B84202D0084A90423E
:100C500001D10969016301214161F0BD002C01400E
:100C600000040040004001400044014000200040DA
:100C700000480140F8B5040C8BB2264682B25E43B0
:100C80000D0C1046370C5843360480190021794169
:100C900016466E43370C36048019794126466E435A
:100CA0008919F8BD8307FF22DB0E9A408907090ED8
:100CB0009940002808DB830809489B001B18186826
:100CC00090430843186070470007000F08388308F6
:100CD00004489B001B18D86990430843D8617047AB
:100CE00000E400E000ED00E002E008C8121F08C1C7
:100CF000002AFAD170477047002001E001C1121F9D
:100D0000002AFBD17047000096B0FFF7D7FAFFF733
:100D100031FF16484269012189050A434261406951
:100D20001C220840159012496846FFF772FA00210C
:100D3000684600F034F80F4C0D4920601C221C312D
:100D400007A8FFF766FA002107A800F028F808496D
:100D500060601C2238310EA8FFF75BFA00210EA854
:100D600000F01DF8A06000F015F8FEE7001002404A
:100D7000F81500080000002001460020842900D05A
:100D8000C81C704710B5002800D1012000F094FA6B
:100D9000002010BD10B500F0A7FA002010BD7FB5EF
:100DA0000D46044641690820205E002911D0A16942
:100DB00000290ED0FFF7E0FFA26961696B4607C307
:100DC0002B4622692168606800F03FFB039004B065
:100DD00070BDFFF7D1FF03A901910090208A2B4637
:100DE00082B22168606800F007FB012801D0002072
:100DF000EDE70398EBE70000F8B5134C0F46666982
:100E000005462068001D00F0BFF9681C07D1002FBF
:100E100005D021680D48091D00F0FAF9F8BD2068D9
:100E2000751945602168B54204D2091DA06800F01B
:100E3000D7F9F8BD091D606800F0D2F9206B854232
:100E4000F7D22563F8BD00001C000020EC03002051
:100E5000F8B5054600F0E8F9294C2069401C2061EE
:100E60002068284F002803D0E069002827D02CE014
:100E700025602069012828D1002614207043C0195C
:100E800000F0A0F9761C072EF7D31E488C3000F036
:100E900099F91C48A03000F095F91A48B43000F0D8
:100EA00091F91848C83000F08DF91648DC3000F090
:100EB00089F914488C3060601430A06005E0206827
:100EC000E96AC06A884200D82560E06A401CE06296
:100ED000E86AA169884200D9A06114214843C01979
:100EE000291D00F095F900F0ABF9E069002806D063
:100EF0002068E96AC06A884201D200F0D1F9F8BDE1
:100F00001C0000201003002010B504464030407C37
:100F1000002805D0012806D0022807D072B6FEE7C7
:100F2000206B00F09BF9204600F098F910BD0000FE
:100F300003210E488902420705D0C01DC0080B4A94
:100F4000C000821A891A0A4A00234118083909C2C6
:100F5000C908C900183A11604B600B600B1A0AC02F
:100F600093600120C0075360D060704700040020E8
:100F7000680000200F4E104C3746C83F11E000F0CB
:100F800053F9F068C568281D00F0FEF82069401E7E
:100F90002061E068401EE06000F052F92846FFF74B
:100FA000B3FFE0680028EAD138680128F9D900F0D9
:100FB00077F9F6E7D80300201C000020FFB581B0C8
:100FC0000C9C9000236B001F1818C6080A9DF600A1
:100FD000700701D072B6FEE723180A5C20331A7539
:100FE0000A5C002A02D0401C1028F5D3204640306D
:100FF00000270090C770072D00D30625E562A7647F
:10100000201D656400F0E9F82046183000F0E5F88E
:101010000720401B2461A0616462E76400980774A4
:101020003046049A019900F09FF820600B98002840
:1010300000D0046005B0F0BD30B5114900E01146A4
:101040000A688242FBD34B685C18844203D1406833
:1010500018184860084643681C18944209D1084C87
:10106000103C2468A24209D052689A1842600A686B
:1010700012680260814200D0086030BD0460F9E768
:1010800068000020064841680968002905D04168C9
:10109000C968C9684968016370470021C943FAE714
:1010A0001C00002003480068401C72B600D0FEE718
:1010B000FEE7000070000020F8B50546002700F0AC
:1010C0003FF9284E3068002801D1FFF731FFF06862
:1010D00005423FD1002D3DD00835680708D068078C
:1010E000400F0821081A4519680701D072B6FEE7BB
:1010F000002D2FD0706885422CD81A481030014638
:101100000C6801E020460C466168A94202D22168C1
:101110000029F7D131688C421CD007682168016032
:1011200060680837411B102908D96019420701D0AF
:1011300072B6FEE741606560FFF77EFF6168706828
:10114000401A7060B268904200D2B060F06801430B
:10115000002003C400F0FAF9780701D072B6FEE768
:101160003846F8BD5800002010B50124031F24069E
:101170001C601B1F1960191F024B0B60143940388B
:101180000A6010BDA51000084368826801699A6072
:10119000836842685A604A68824201D182684A6024
:1011A000002202610868401E08600868704700005D
:1011B000034B03601846543008608020106070476D
:1011C000740000200146083100224160D243C16012
:1011D0008260016100210160704700210161704758
:1011E00030B50B685A1C02D00246083202E0026990
:1011F00004E02246546825689D42FAD953684B6042
:1012000099608A60516008610168491C016030BDC5
:1012100042684A6093688B60936859609160086186
:101220000168491C0160704772B604480168491C96
:10123000BFF34F8FBFF36F8F0160704770000020C6
:1012400005490868002804D0401E086000D162B635
:10125000704772B6FEE700007000002070B50028ED
:101260001BD00446083C0D4D6068E96802460A42FE
:1012700004D02268002A03D072B6FEE772B6FEE7F9
:101280008843606000F05CF86068696840186860D6
:101290002046FFF7D1FE00F059F970BD580000203C
:1012A0000120044900074860BFF34F8FBFF36F8FE1
:1012B0007047000000ED00E010B502000FD00948B3
:1012C000806B002801D072B6FEE700F039F80021EB
:1012D0001046FFF791FD00F039F9002801D1FFF722
:1012E000DFFF10BD1C00002010B586B00024039461
:1012F00005AA04A903A80494FFF75AFF04990398C8
:10130000009401910290002309A10B48059A00F076
:101310009CF80A490028486308D072B60020C043F0
:1013200008630120C8614C6100F03EF806B010BDB2
:1013300049444C4500000000750F00081C000020C7
:101340000248816B491C8163704700001C0000202B
:1013500010B51348816B002902D00121416210BDF4
:101360000021416281690F4A02E0002915D0491E1F
:1013700014234B43D358002BF7D014234B439A1814
:10138000536814465B6808345360A34201D15B681C
:101390005360DA680260816110BD72B6FEE700003A
:1013A0001C0000201003002070B50F48016AFF22C6
:1013B000120411430162016A1202114301620B4CD3
:1013C00000252561A5610A487D21C9000068FEF756
:1013D000C9FE401E60610720206106480560FEF7D7
:1013E00077FE002070BD000000ED00E000E000E0AE
:1013F0001800002070000020FFB585B01646900050
:101400000F9FFFF759FE05001CD05420FFF754FE34
:10141000040014D000205121256308550E99009135
:101420000390019702943246089B06990598FFF7AE
:10143000C5FD2046FFF70CFD012009B0F0BD284690
:10144000FFF70CFF0020C043F7E7F0B585B0074673
:101450000B9D0C9C0A98002D15D0002C15D05426FD
:101460002563022551263555002504AE00900196CE
:10147000039502943846FFF7A1FD2046FFF7E8FCEC
:10148000049805B0F0BD72B6FEE772B6FEE7000044
:10149000F8B52C4C0027A06B002808D0206A401C0F
:1014A0002062606A002800D001273846F8BD6669CE
:1014B000761C66610ED160680068002801D072B6A3
:1014C000FEE76068A1686160A060A06A401CA0623D
:1014D000FFF7D8FD206B86420AD3606800680028B9
:1014E00010D06068C068C568686886420DD2206305
:1014F00020681421C06A4843134908580128D0D9EC
:101500000127CEE70020C043F1E7281DFFF73CFE8E
:10151000A86A002803D028461830FFF735FEE86A8D
:10152000A169884200D9A0611421484306494018A6
:10153000291DFFF76DFEE86A2168C96A8842CCD38D
:101540000127CAE71C00002010030020F8B5284C32
:101550000025A06B2E46002808D0FFF765FEA06B83
:10156000401EA063A06B002802D03DE072B6FEE7EB
:101570002169204F00291DD136E0F868C56828464A
:101580001830FFF701FE281DFFF7FEFDE86AA1698C
:10159000884200D9A061142148431649B439401843
:1015A000291DFFF735FEE86A2168C96A884201D320
:1015B0000120606238680028DFD1002D01D0FFF7DC
:1015C00061FD256A002D09D00127FFF761FF002882
:1015D00000D067626D1EF8D100202062606A00288A
:1015E00002D00126FFF75CFEFFF72AFE3046F8BD69
:1015F0001C000020C403002076160008390B0008E8
:10160000000000000000000080000000000000005A
:101610000000000064160008410B0008FDFF0000F8
:10162000000000008000000000000000000000003A
:101630006D160008490B0008FDFF000000000000C7
:10164000800000000000000000000000000000001A
:101650000000000001020304060708090000000062
:10166000010203046D795461736B3032006D79545B
:1016700061736B30330064656661756C74546173BB
:101680006B000000A4160008000000207400000099
:10169000E80C000818170008740000208C130000E4
:1016A000F80C00080000000000000000000000002E
:1016B00001000000040000000000000000127A0099
:1016C000000000000000000000000000000000001A
:1016D000000000000000000000000000000000000A
:1016E00000000000000000000000000000000000FA
:1016F00000000000000000000000000000000000EA
:1017000000000000000000000000000000000000D9
:0817100000000000AAAAAAAA29
:04000005080000BD32
:00000001FF
