:020000040000FA
:1000000020001460000000B5000000C5000000C71B
:1000100000000000000000000000000000000000E0
:10002000000000000000000000000000000000C907
:100030000000000000000000000000CB000000CD28
:10004000000000CF000000D1000000D3000000D568
:10005000000000D7000000D900000000000000DB15
:10006000000000DD000000DF000000E1000000E310
:10007000000000E5000000E7000000E9000000EBE0
:10008000C046C04600F006F81FB5C046C0461FBDBA
:1000900010B510BD00F05DF81146FFF7F5FF00F058
:1000A0003BF800F075F803B4FFF7F2FF03BC00F073
:1000B00079F80000EFF314800F49084080F31488AA
:1000C0000E480047FEE7FEE7FEE7FEE7FEE7FEE735
:1000D000FEE7FEE7FEE7FEE7FEE7FEE7FEE7FEE7F8
:1000E000FEE7FEE7FEE7FEE7FEE7FEE70448054918
:1000F000034A054B70470000FFFFFFFE0000008130
:1001000020000060200014602000006000BF014655
:10011000401E0029FBD1704715E00B480068012103
:100120000843094908607D200001FFF7EFFF0648FA
:1001300080300068012108430349803108607D2038
:100140000001FFF7E3FFE8E7E000E10070477047D8
:100150007047754600F022F8AE46050069465346E2
:10016000C008C000854618B020B5FFF7BFFF60BCCF
:1001700000274908B6460026C0C5C0C5C0C5C0C5D1
:10018000C0C5C0C5C0C5C0C5403D49008D4670470B
:100190000446C046C0462046FFF785FF004870472A
:1001A0002000000001491820ABBEFEE70002002637
:0401B0007047000094
:040000050000008176
:00000001FF
