:020000040000FA
:1000000020001460000000B5000000C5000000C71B
:1000100000000000000000000000000000000000E0
:10002000000000000000000000000000000000C907
:100030000000000000000000000000CB000000CD28
:10004000000000CF000000D1000000D3000000D568
:10005000000000D7000000D900000000000000DB15
:10006000000000DD000000DF000000E1000000E310
:10007000000000E5000000E7000000E9000000EBE0
:10008000C046C04600F006F81FB5C046C0461FBDBA
:1000900010B510BD00F04FF81146FFF7F5FF00F066
:1000A00035F800F067F803B4FFF7F2FF03BC00F087
:1000B0006BF80000EFF314800F49084080F31488B8
:1000C0000E480047FEE7FEE7FEE7FEE7FEE7FEE735
:1000D000FEE7FEE7FEE7FEE7FEE7FEE7FEE7FEE7F8
:1000E000FEE7FEE7FEE7FEE7FEE7FEE70448054918
:1000F000034A054B70470000FFFFFFFE0000008130
:1001000020000060200014602000006007480068A4
:100110000121084305490860044880300068012136
:10012000084302498031086000BFFEE7E000E100BB
:10013000704770477047754600F022F8AE460500DC
:1001400069465346C008C000854618B020B5FFF781
:10015000CDFF60BC00274908B6460026C0C5C0C513
:10016000C0C5C0C5C0C5C0C5C0C5C0C5403D4900AB
:100170008D4670470446C046C0462046FFF793FFB1
:10018000004870472000000001491820ABBEFEE780
:08019000000200267047000088
:040000050000008176
:00000001FF
