:020000040000FA
:1000000020000788000002C1000002C5000002C7EE
:1000100000000000000000000000000000000000E0
:10002000000000000000000000000000000002C905
:100030000000000000000000000002CB000002CD24
:10004000000002CF000002D1000002D3000002D560
:10005000000002D7000002D900000000000002DB0F
:10006000000002DD000002DF000002E1000002E308
:100070000000000000000000000000000000000080
:100080000000000000000000000000000000000070
:100090000000000000000000000000000000000060
:1000A0000000000000000000000000000000000050
:1000B0000000000000000000000000000000000040
:1000C0000000000000000000000000000000000030
:1000D0000000000000000000000000000000000020
:1000E0000000000000000000000000000000000010
:1000F0000000000000000000000000000000000000
:1001000000000000000000000000000000000000EF
:1001100000000000000000000000000000000000DF
:1001200000000000000000000000000000000000CF
:1001300000000000000000000000000000000000BF
:1001400000000000000000000000000000000000AF
:10015000000000000000000000000000000000009F
:10016000000000000000000000000000000000008F
:10017000000000000000000000000000000000007F
:10018000000000000000000000000000000000006F
:10019000000000000000000000000000000000005F
:1001A000000000000000000000000000000000004F
:1001B000000000000000000000000000000000003F
:1001C000000000000000000000000000000000002F
:1001D000000000000000000000000000000000001F
:1001E000000000000000000000000000000000000F
:1001F00000000000000000000000000000000000FF
:1002000000F002F800F031F80CA030C808382418CB
:100210002D18A246671EAB4654465D46AC4201D13E
:1002200000F023F87E460F3E0FCCB646012633423F
:1002300000D0FB1AA246AB463343184700001760B4
:1002400000001770103A02D378C878C1FAD8520764
:1002500001D330C830C101D504680C6070471FB5A8
:10026000C046C0461FBD10B510BD01F06BFA114667
:10027000FFF7F5FF00F044F801F083FA03B4FFF74D
:10028000F2FF03BC01F088FA70B505460C4616462D
:1002900002E00FCC0FC5103E102EFAD2082E02D36A
:1002A00003CC03C5083E042E07D301CC01C5361F7D
:1002B00003E021782970641C6D1C761EF9D270BD94
:1002C0000B480047FEE7FEE7FEE7FEE7FEE7FEE736
:1002D000FEE7FEE7FEE7FEE7FEE7FEE7FEE7FEE7F6
:1002E000FEE7FEE703480449024A044B704700005A
:1002F00000000201200001882000078820000188FA
:1003000000F0F6FC412080011C49886011201C4946
:1003100008701A4800681B490843184908605020B3
:100320001949486019480178401C00F01DFB23E082
:1003300000F0B0FC0121164800F054FB144800788E
:10034000FF2802D100F09BFA16E004211048401C5F
:1003500000F048FB00F0D4FC6D2000020D4908803D
:1003600000F035F800F0C4FC022000F077FA0A48EB
:100370000188074800F0F8FADAE700005000720040
:100380002000000E000200014000100020000000CC
:100390002000001C2000000C2000000AF848008803
:1003A0000012F849F84A12888854F5484178F5480F
:1003B000F54A128880184170F3480088801CF24981
:1003C000088070476D200002ED490880704710B525
:1003D0000020ED490880002400BFE000EB49085CE4
:1003E000E8494978884204D0E000E849085CFF28E1
:1003F00007D1E100E54A891848688047FFF7CEFF3A
:1004000002E0601CC4B2E8E700BF10BD30B5B5B073
:10041000DF4B0FCB23AC0FC4DD49103103C9229150
:1004200021902022DA49183119A8FFF72DFF202248
:10043000D749383111A8FFF727FF2022D449583176
:1004400009A8FFF721FF2EAC19A82060684620619B
:100450002020606023A8A0600020207508A8A0616B
:10046000204600F039FD0546CA48854205D161683D
:10047000206940180899884204D0C748C0490880BC
:1004800035B030BD202211A9206901F02DF90546B3
:10049000002D04D0C048401CB9490880F0E719A8D5
:1004A000279068462B902020289021A82A9023A8E6
:1004B0002990202028A9087408A82D9027A800F0CA
:1004C000FAFE0546B348854205D128992B98401875
:1004D0000899884204D0B048801CA9490880CFE719
:1004E000202209A92B9801F0FFF80546002D04D021
:1004F000A948C01CA2490880C2E709A827906846FD
:100500002B902020289021A82A9023A829906020B1
:1005100028A9087408A82D9027A800F0CCFE05464D
:100520009C48854205D128992B9840180899884203
:1005300004D09948001D92490880A1E7202219A9FA
:100540002B9801F0D1F80546002D04D09248401DAB
:100550008B49088094E7092000038949088000BF7F
:100560008EE710B5FFB089B0FF2209328849783193
:1005700004A8FFF789FE89A30FCB6C460FC48B48F4
:1005800000680121084389490860FF22093204A953
:1005900046A8FFF779FE022346AAFF2106318448C8
:1005A00000F036FA04468348844205D07A487449FC
:1005B00008807FB009B010BD022304AAFF210631D4
:1005C0007D4800F025FA0446E04380B27B4988422A
:1005D00004D07148401C6A490880EAE701236A4652
:1005E0000D21754800F014FA0446E04380B27449C6
:1005F000884204D06848801C61490880D9E70920F6
:1006000000035F49088000BFD3E770B55D480579F6
:1006100044788078012804D0022807D003280DD11F
:1006200008E00821574800F0DAFA0CE0554800F0DD
:10063000CDFA08E0534800F04CFA04E06F200002C5
:100640004F49088070BD00BF204600F07DF9002DA5
:1006500002D1FF20013000E028464B4908800920E4
:1006600000034749088000BFECE710B500F0E2F84E
:1006700044488078012802D002281BD111E041496A
:10068000C978490203225204881800F05EFB002852
:1006900006D0D520C0013A49088000F0D2F810BD3C
:1006A0000FE03849C978090303225204881800F082
:1006B00077FB06E06F2000023149088000F0C1F8A6
:1006C000EDE700BF092000032D49088000F0B9F8CC
:1006D00000BFE4E730B5FFB082B000F0ABF82948C6
:1006E0008078012802D002286DD11CE0002403E0AC
:1006F000A00001A90C50641C802CF9D32149C978B1
:10070000490203225204881801A900F07FFB002847
:1007100008D0D520C0011A49088000F092F87FB0B7
:1007200002B030BD56E01749487800F00DF9154881
:100730000179401D00F056F91248C07900061149B0
:10074000097A090440180F49497A090240180D49ED
:10075000897A45180B4949790902032252048918FC
:10076000084A92798818294600F06DFB002829D0A4
:10077000D520C0010249088000F063F8CFE722E0ED
:100780002000000C2000001C2000000A000017C8F8
:1007900000001800B7C8D9EA00006F0131323334C5
:1007A00035363738391122334400000050007200CA
:1007B0000000636300008AA00000FFFF00002152D8
:1007C00000003A2F06E06F2000021949088000F06F
:1007D00038F8A4E700BF092000031549088000F09D
:1007E00030F800BF9BE770B5002000F0AEFA00289B
:1007F00004D0D520C0010E49088070BD69252D03A5
:1008000000240CE0A200A958A00000F01CFB002866
:1008100004D0D520C00106490880EEE7641C1C2CDA
:10082000F0D3092000030249088000BFE5E700007B
:100830002000000C4848C069012108434649C861AE
:1008400070474548C069400840004349C86100BF3F
:100850004148806820210842FAD170470CE03E49A7
:100860008968402211433C4A916000BF3A49896837
:1008700040221142FAD1401E0028F0D17047F8B54D
:1008800036A000680090FF2035490870012601213C
:100890003348401C00F0A6F8042407E030484078B4
:1008A0002041C007C00F00D0761C641C072CF5D374
:1008B00031462B48801C00F095F80025002403E009
:1008C0002748005D4540641CB01C8442F8D3002DCD
:1008D00038D10420FFF7C2FF214840789F2108400B
:1008E000102821D100241DE01D4881780620604396
:1008F0001C4A105A814214D1102019494870062010
:1009000060431146401840791549C87004211448C5
:1009100000F02AF8062060431249085A0E498861FF
:10092000F8BD641C052CDFD30121684600F01CF8DB
:10093000012100A8013000F017F8012100A80230C1
:1009400000F012F800BFEBE701B5012100A8033069
:1009500000F00AF808BD000040001000FF00FF0092
:100960002000001C0000197E0246002901D102204F
:10097000704700BFD948806828231842FAD1D74869
:10098000406880088000D54B5860184640680123B5
:100990001843D24B58601FE01078D04B1860521C9F
:1009A00000BFCE48806810231842FAD0CB48806838
:1009B0000223184203D10020C84B98600CE00120AC
:1009C000C64B186100BFC5480069C007C00FFAD107
:1009D000C24B98600120CBE70846491E0028DBD1B6
:1009E00000BFC5E700BFBD4A926828231A42FAD16A
:1009F00009E000BFB94A526902231A42FAD1B74A44
:100A000012680270401C0A46491E002AF1D1704744
:100A1000FFB581B093079B0F002902D1019805B063
:100A2000F0BDAF4E0198B06004988007400F401CA5
:100A30003060072902D800240D462AE0A848006843
:100A40000090002B11D00420C31AC91AA4480068D2
:100A500020263043A24E306003E01078A04E706034
:100A6000521C18465B1E0028F7D18C088D07AD0F6D
:100A70009B4E00983060002C0AD0104602E040C81F
:100A8000974F7E602646641E002EF8D1024600BFB6
:100A900000BF002D0ED09248006820263043904EB3
:100AA000306003E010788E4E7060521C28466D1E38
:100AB0000028F7D18A48406880B2B0E710B503E05B
:100AC0000B780370401C491C1346521E002BF7D1B3
:100AD00010BD1CB50446012282492046FFF7EEFFF7
:100AE000012280490E3101A8FFF7E8FF01227D496C
:100AF000491C6846FFF7E2FF68460079102108406C
:100B0000C10068460079C007400E01436846017184
:100B1000007801110A204143684600780007000F61
:100B20000818C1B26846017000788106890E6846CF
:100B300001700079694609780843607001226949AB
:100B40001331A01CFFF7BAFF012266491431E01CE3
:100B5000FFF7B4FF012263491531201DFFF7AEFFF7
:100B6000012260491631601DFFF7A8FF01225D498F
:100B7000891CA01DFFF7A2FF01225A49C91CE01DD4
:100B8000FFF79CFF01225749113120460830FFF73B
:100B900095FF01225349123120460930FFF78EFF9D
:100BA00001225049091D20460A30FFF787FF012224
:100BB0004C49491D20460B30FFF780FF012249496F
:100BC000891D20460C30FFF779FF1CBD10B5044687
:100BD0002022444909392046FFF770FF10BDF8B5BF
:100BE0008507AD0F404E366800963F4E3668FF27AA
:100BF00001373E433C4F3E603C4E366B02273E423F
:100C000004D03A4E366BBE43384F3E63072902D8B4
:100C100000220B4628E0002D11D00426751B491B2D
:100C200009E000BF314E366BF607F60FFAD02F4EB3
:100C3000766B0670401C2E466D1E002EF1D18A0880
:100C40008B079B0F002A0FD0044608E000BF274EF9
:100C5000366BF607F60FFAD0244E766B40C4164674
:100C6000521E002EF2D12046002B0ED009E000BF0C
:100C70001E4E366BF607F60FFAD01C4E766B0670DA
:100C8000401C1E465B1E002EF1D1009EF643164FFF
:100C90007E60F8BD1449886870210140302902D176
:100CA0004021114A916050210F4A91600B49896897
:100CB0000822114207D1094949690222114202D092
:100CC00040BF20BF20BF70210140302902D1402108
:100CD000054A916004498860704700004000100098
:100CE000500050001FFFFE09500072004000280015
:100CF00000205F4908605F4908605F4908607047ED
:100D00005E485B490860C0435A4908605C485A49DC
:100D10000860704710B5564800685849884209D1A4
:100D200054480068C943884204D153480068544974
:100D3000884201D0FFF7C4FA10BD504851490862FB
:100D4000C04348624E488862704770B50446640AE2
:100D5000640272B6FFF7F1FF0020C04320604A48EA
:100D600000F022FD62B6002507E0A8002058401CD4
:100D700002D00020C04370BD6D1C802DF5D3002033
:100D8000F9E710B50446640A640272B6FFF7D5FFAE
:100D90000020C04320603C4800F006FD62B610BD54
:100DA00010B50446240B240372B6FFF7C6FF0020DB
:100DB000C04320603448401E00F0F6FC62B610BD0F
:100DC000F8B504460E461746240A240272B6FFF709
:100DD000B4FF2C488661781E2A49C8610020C043B0
:100DE00020602948401D00F0DFFC62B6002509E0C4
:100DF000A8002058A9007158884202D00020C043A2
:100E0000F8BD6D1CBD42F3D30020F9E770B5044670
:100E10000D46640A6402402229462046FFF7D0FFAF
:100E2000002802D00020C04370BD4022E91DF931E6
:100E3000E01DF930FFF7C4FF002802D00020C043B6
:100E4000F2E70020F0E770B504460D4672B6FFF7F2
:100E500074FF25600C48001D00F0A6FC62B62068F7
:100E6000A84202D00020C04370BD0020FCE7000073
:100E7000200000102000001420000018AA55AA55D8
:100E8000A5A55A5A5000708057AF6C0AFB4A04E07F
:100E90005368DB07FCD0936808C0491EF8D270473E
:100EA00002460020014601E0401C491C9142FBD350
:100EB000904200D00020704700B50421F048FFF7B1
:100EC000E5FFEF4802210838FFF7E0FFEC48022178
:100ED0001038FFF7DBFF00BDF0B5054640688FB066
:100EE000002801D0400702D0E6480FB0F0BDE64828
:100EF000046801680222114301600520000746686A
:100F0000A4208643287D374600090001287508D0B3
:100F100004218422202809D0402804D060280AD146
:100F200007E0802106E080210E4304E00E431743D2
:100F300001E016430F4380060CD5E868D0490268EB
:100F400010390A604268091D0A603838816B0291C5
:100F5000C06B03906868C0080E90286884462869B2
:100F60000B90002075E101216846FFF78FFF009884
:100F7000C64B4007400FFFF793FF00997B334907AB
:100F8000490F019381427DD10221BD48FFF77EFFC9
:100F900001216846FFF77AFF0098019B4007400F48
:100FA000FFF77EFF0099F6334907490F019381420D
:100FB000E9D101216846FFF769FF0098C307DB0FFD
:100FC0000093A96898000A588E46AD490A5001203E
:100FD0004340980071460958A94A115001216846BA
:100FE000FFF754FF0098019B4007400FFFF758FFA1
:100FF0000099F6334907490F01938142C3D1052077
:10100000000746609E4861460838096801609C49AF
:101010006046091F426808300A6084464038816B88
:101020000691C06B079001216846FFF72FFF0098DB
:10103000019B4007400FFFF733FF0099F633490744
:10104000490F019381429ED1052212071068802129
:10105000084310600520000700680006FAD401214B
:101060006846FFF713FF0098019B4007400FFFF70A
:1010700017FF0099F6334907490F0193814297D131
:10108000834900E0C8E08B4292D17D490839086865
:101090000C900A1D10680D90900647600C9808602F
:1010A0000D981060287D202802D0602804D00EE022
:1010B0000C9804900D9802E006980490079805900B
:1010C0006F480299103801600399001D01600121E9
:1010D0006846FFF7DBFE0098019B4007400FFFF7D3
:1010E000DFFE0099F6334907490F0193814285D10C
:1010F00002216348FFF7CAFE01216846FFF7C6FEDA
:101100000098019B4007400FFFF7CAFE0099F63395
:101110004907490F019381427ED101216846FFF7BB
:10112000B5FE0098C307DB0F0093A96898000A5822
:101130008E4653490A500120434098007146095891
:101140004F4A115001216846FFF7A0FE0098019B0D
:101150004007400FFFF7A4FE0099F6334907490FF7
:101160000193814258D10520000701688022114374
:10117000016001680906FCD401216846FFF786FE7C
:101180000098019B4007400FFFF78AFE0099F63355
:101190004907490F0193814266D1394808380068F0
:1011A00008903748001F00680990287D202801D04A
:1011B00060280AD104980290059803903048049959
:1011C000103801600599001D016001216846FFF794
:1011D0005DFE0098019B4007400FFFF761FE0099FC
:1011E000F6334907490F019381423DD1069808998A
:1011F000884239D107980999884235D125498B42CF
:1012000032D101216846FFF741FE0098019B40075B
:10121000400FFFF745FE00E026E00099F63349074E
:10122000490F814220D10698089988421CD107981D
:101230000999884218D11748F630834214D10C9985
:101240000B9801600D990B98416008300B900A983B
:10125000401C0A900E98401E0E9000D383E66868EA
:10126000C1080A98814219D0FFF726FE0648416856
:101270000222114341600460074836E650003800FE
:1012800050000018932057CE500072000000A69B1B
:101290000000AAEE0000AFBC48372615FFF70CFE91
:1012A000F94841680222114341600460A9690B9822
:1012B0000860F64819E6F0B5054640688FB000288A
:1012C00001D0400701D0F2480FE6EF4804680168FA
:1012D000022211430160052000074668287DA421F1
:1012E00000098E4300012022A023374628750028DC
:1012F00006D020280AD0402805D060280CD108E06C
:1013000016431F4308E01E43174305E024221643FB
:1013100001E00E4324210F4380060BD5E868DD4928
:1013200002680A604268091D0A603838816B0191C1
:10133000C06B02906868C0080E9028680990286900
:101340000A90002099E101216846FFF79FFD00986F
:10135000D14B4007400FFFF7A3FD00997B334907AE
:10136000490F9C4681427DD1CA4804211030FFF7C5
:101370008DFD01216846FFF789FD0098634640070F
:10138000400FFFF78DFD0099F6334907490F07938A
:101390008142E8D101216846FFF778FD0098800777
:1013A000800F0090AA68810053589446B94A1032C1
:1013B000535001214140890062465358B54A1032CA
:1013C000535002214140890062465358B14A1032BD
:1013D000535003214840800062461258AD491031F5
:1013E0000A5001216846FFF751FD0098079B40070E
:1013F000400FFFF755FD0099F6334907490F9C460A
:101400008142B0D1052000074660A2480999083002
:10141000096801609F4909980C31426808300A60E8
:1014200009904038816B0591C06B06900121684698
:10143000FFF72CFD009863464007400FFFF730FD93
:101440000099F6334907490F9C4681428BD105220A
:10145000120710688021084310600520000700680B
:10146000000600E0DAE0F8D401216846FFF70EFD3F
:10147000009863464007400FFFF712FD0099F633CE
:101480004907490F9C468142BBD184498C45B8D15C
:101490008049083108680B900A1D10680C9090066E
:1014A00047600B9808600C981060287D202802D0B7
:1014B000602804D00DE00B9803900C9802E005988A
:1014C0000390069804907348019901600299001DE9
:1014D000016001216846FFF7D9FC00986346400788
:1014E000400FFFF7DDFC0099F6334907490F9C4692
:1014F000814286D1674804211030FFF7C7FC0121E3
:101500006846FFF7C3FC009863464007400FFFF7AB
:10151000C7FC0099F6334907490F079381427DD1F3
:1015200001216846FFF7B2FC00988007800F009009
:10153000AA68810053589446564A103253500121EC
:101540004140890062465358524A1032535002219A
:1015500041408900624653584E4A1032535003218D
:1015600048408000624612584A4910310A50012111
:101570006846FFF78BFC0098079B4007400FFFF77A
:101580008FFC0099F6334907490F9C46814245D1AB
:1015900005200007016880221143016001680906E7
:1015A000FCD401216846FFF771FC009863464007B0
:1015B000400FFFF775FC0099F6334907490F9C4629
:1015C000814274D1334808300068079031480C30AC
:1015D00000680890287D202801D0602809D1039850
:1015E0000190049802902B48039901600499001D12
:1015F000016001216846FFF749FC009863464007F7
:10160000400FFFF74DFC0099F6334907490F9C4600
:1016100081424CD105980799884200E047E046D1C5
:1016200006980899884242D11D498C453FD1012135
:101630006846FFF72BFC009863464007400FFFF712
:101640002FFC0099F6334907490F81422FD10598A5
:10165000079988422BD106980899884227D11048CB
:10166000F630834223D10B990A9801600C990A98AD
:10167000416008300A900D98401C0D900E98401E55
:101680000E900FD35FE6000050007200B7C8D9EA91
:10169000932057CE500000080000A69B0000AAEE41
:1016A0000000AFBC6868C1080D98814209D0FFF7FF
:1016B00003FC0B4841680222114341600460094861
:1016C00013E4FFF7F9FB0648416802221143416029
:1016D0000460A9690A9808600248C04305E4000054
:1016E0005000720048372615034610B50B439B0780
:1016F0000DD1042A0BD310C808C9121F9C42F8D080
:101700009C4201D9012010BD0020C04310BD002A19
:1017100003D0D30703D0521C07E0002010BD03788C
:101720000C78401C491C1B1B07D103780C78401C0B
:10173000491C1B1B01D1921EF1D1184610BD7047E8
:1017400070477047754600F023F8AE4605006946BD
:101750005346C008C000854618B020B5FEF7C2FD4C
:1017600060BC00274908B6460026C0C5C0C5C0C534
:10177000C0C5C0C5C0C5C0C5C0C5403D49008D4637
:1017800070470446C046C0462046FEF777FD00007D
:10179000004870472000012401491820ABBEFEE735
:1017A000000200267047000000B5002383F3008884
:1017B0000200044906B4FFF7ADFA06BC00D10A6086
:1017C00008BC184750007084F00000000000040DB1
:1017D000F200000000000563C60000000000060BD8
:1017E000D20000000000066BD6000000000006D505
:1017F000D8000000000007E7FF000000000003C55C
:1018000053D6A7A90D38BC8613B88389963E20CB42
:101810003DCD8D1E76F1233BF0E5AC7F803571B078
:10182000A7408E0C378C05AEE58732C7CC28A34E77
:101830000B52EE7A8214C1621D1A9D5A7BE7C2F0E8
:10184000DD3BFC0A74DBA3C35DAFFB8C87286F17FD
:10185000E36194F3307DFAA38E507B1D81EF13C6B4
:1018600056BCF4278A35434DA5DB5C4004B9FE1213
:101870005A81FED382AC8DF7BA37B15ACFF77C7D4F
:101880000CFDA406C2A66DD835028D5C284A571BF4
:10189000A7A0259D1608068379A5A7E3043785E24E
:1018A000E4D352964EE3A61DC860E9F7B64C7FAB71
:1018B00026743498DF66E91AA6B07FE0D159028B0E
:1018C00010A3188A7A01AA33D554D324296D08DBD2
:1018D00086BE87921361045E594D908AD0D6CC3073
:1018E000A9644D18DC7651D374D9A2191923C962A1
:1018F000DD7575C24A702D09AA7633199724BA8806
:10190000C50E4A790EBC72B5BDE4AF101EE89AF957
:10191000449157611C0B3CD1B122C0C5C0BDA54C40
:101920007E9A67E4A64BE691C86F513FD033545876
:10193000D40A85A821AA0A6F86498EC5E1186434A5
:10194000EAFFFB933E99841FAE71E1DFC77CCF377E
:10195000A3D956CCF1C66F9A42E4F55294AED0F8B2
:1019600023355FBC6D20251785E2B6279B3CE24EF0
:10197000CBF5220824D6420CFBEA4EA57000009756
:10198000000700780011017300FE0018001E00F728
:101990000094003F007B0096000F0079000019AC16
:1019A000200000000000001C00000244093B1696C5
:1019B000811803DDB01000000000000000000000EE
:0819C00000000000000000001F
:0400000500000201F4
:00000001FF
