:020000040000FA
:1000000020001460000000D9000000E9000000EBAF
:1000100000000000000000000000000000000000E0
:10002000000000000000000000000000000000EDE3
:100030000000000000000000000000EF000000F1E0
:10004000000000F3000000F50000000000000000C8
:10005000000000000000000000000000000000F7A9
:1000600000000000000000F9000000FB000000FD9F
:10007000C046C04600F006F81FB5C046C0461FBDCA
:1000800010B510BD00F04FF81146FFF7F5FF00F076
:1000900009F800F067F803B4FFF7F2FF03BC00F0C3
:1000A0006BF800004120800109498860084600681B
:1000B000012149020843064908600B2005490860F0
:1000C0008220886002E00349486800BFFBE7000027
:1000D0005000720040000800EFF314800B49084004
:1000E00080F314880A480047FEE7FEE7FEE7FEE7D4
:1000F000FEE7FEE7FEE7FEE7FEE7FEE7FEE70000BD
:1001000004480549034A054B70470000FFFFFFFE06
:1001100000000071200000602000146020000060DA
:10012000704770477047754600F022F8AE460500EC
:1001300069465346C008C000854618B020B5FFF791
:10014000DFFF60BC00274908B6460026C0C5C0C511
:10015000C0C5C0C5C0C5C0C5C0C5C0C5403D4900BB
:100160008D4670470446C046C0462046FFF793FFC1
:10017000004870472000000001491820ABBEFEE790
:08018000000200267047000098
:040000050000007186
:00000001FF
