:020000040000FA
:1000000020001460000000BD000000CD000000CF03
:1000100000000000000000000000000000000000E0
:10002000000000000000000000000000000000D1FF
:100030000000000000000000000000D3000000D518
:10004000000000B3000000D9000000DB000000DD6C
:10005000000000DF000000E100000000000000E3FD
:10006000000000E5000000E7000000E9000000EBF0
:10007000000000ED000000EF000000F1000000F3C0
:10008000C046C04600F006F81FB5C046C0461FBDBA
:1000900010B510BD00F041F81146FFF7F5FF00F074
:1000A0000AF800F059F803B4FFF7F2FF03BC00F0C0
:1000B0005DF800BFFEE700BFFEE70000EFF314802D
:1000C0000F49084080F314880E480047FEE7FEE71A
:1000D000FEE7FEE7FEE7FEE7FEE7FEE7FEE7FEE7F8
:1000E000FEE7FEE7FEE7FEE7FEE7FEE7FEE7FEE7E8
:1000F000FEE7FEE704480549034A054B7047000048
:10010000FFFFFFFE0000008120000060200014605F
:1001100020000060704770477047754600F022F875
:10012000AE46050069465346C008C000854618B073
:1001300020B5FFF7DFFF60BC00274908B646002660
:10014000C0C5C0C5C0C5C0C5C0C5C0C5C0C5C0C587
:10015000403D49008D4670470446C046C046204693
:10016000FFF7A1FF00487047200000000149182058
:0C017000ABBEFEE7000200267047000056
:040000050000008176
:00000001FF
